:020000040800F2
:100000003808002091010008D1140008AF11000841
:1000100000000000000000000000000000000000E0
:10002000000000000000000000000000D7150008DC
:10003000000000000000000013150008D91500089A
:10004000A301000800000000A3010008A3010008AC
:10005000A3010008A3010008A30100089F050008F0
:1000600000000000A3010008A3010008A30100088C
:10007000A3010008A3010008A3010008000000007C
:10008000A30100080000000000000000A301000818
:1000900000000000A3010008A3010008A30100085C
:1000A00000000000A301000800000000BD160008C9
:1000B00000F002F800F040F80CA030C8083824180E
:1000C0002D18A246671EAB4654465D46AC4201D190
:1000D00000F032F87E460F3E0FCCB6460126334282
:1000E00000D0FB1AA246AB4633431847A01A0000C3
:1000F000C01A0000103A02D378C878C1FAD8520763
:1001000001D330C830C101D504680C6070470000CD
:100110000023002400250026103A01D378C1FBD823
:10012000520700D330C100D50B6070471FB500F0F7
:10013000E3F81FBD10B510BD00F0B6F91146FFF78A
:10014000F5FF01F08DFB00F0CEF903B4FFF7F2FFED
:1001500003BC00F0D5F9000030B40C490C684A68C3
:1001600023681068C0181060241D121D8C4207D22D
:100170008A4208D20C604A6030BC40004008704798
:100180000C00DC3CF6E70A00DC3AF3E7D001002083
:100190000748804707480047FEE7FEE7FEE7FEE71F
:1001A000FEE7FEE704480549054A064B7047000094
:1001B00047160008B1000008380200203808002067
:1001C0003804002038040020FEB5054610460C46D1
:1001D000184373D0AE468C460020AD1A01469C41B0
:1001E00067D36646002701243D46B61A9D4102D3D7
:1001F00013463A462124654676462F04360C3E4384
:100200002D0CB61A9D4104D3150C1B042B4312046C
:100210001034654676462F06360A3E432D0AB61A36
:100220009D4104D3150E1B022B4312020834654670
:1002300076462F0736093E432D09B61A9D4104D351
:10024000150F1B012B431201241D65467646AF078F
:10025000B6083E43AD08B61A9D4104D3950F9B00E6
:100260002B439200A41C65467646EF0776083E4372
:100270006D08B61A9D411AD392185B41641C16E0B2
:100280000018764665464941B71A9D410191009094
:1002900009D36046B11A98418E4684460098019968
:1002A0000025401C6941DD0752082A435B08641E93
:1002B000E6D57246634603B0F0BDFFE70020014675
:1002C000C046C0462A462346F5E700000B4A30B533
:1002D00011460B4C60310B46DC3B0CC1372106E06C
:1002E000020C8D0012185A51064A504300190A4652
:1002F000491E002AF4DC30BD0120E7E77001002030
:10030000E119D666CD0D010001E004C0091F0429E2
:10031000FBD28B0701D50280801CC90700D0027078
:10032000704700290BD0C30702D00270401C491E41
:10033000022904D3830702D50280801C891EE3E7CB
:100340000022EEE70022DFE7002203098B422CD3D4
:10035000030A8B4211D300239C464EE003460B4315
:100360003CD4002243088B4231D303098B421CD377
:10037000030A8B4201D394463FE0C3098B4201D369
:10038000CB01C01A524183098B4201D38B01C01AA1
:10039000524143098B4201D34B01C01A5241030918
:1003A0008B4201D30B01C01A5241C3088B4201D3C7
:1003B000CB00C01A524183088B4201D38B00C01A74
:1003C000524143088B4201D34B00C01A5241411A9B
:1003D00000D201465241104670475DE0CA0F00D07E
:1003E0004942031000D34042534000229C46030977
:1003F0008B422DD3030A8B4212D3FC22890112BAFD
:10040000030A8B420CD3890192118B4208D38901D4
:1004100092118B4204D389013AD0921100E08909EC
:10042000C3098B4201D3CB01C01A524183098B42CD
:1004300001D38B01C01A524143098B4201D34B01B6
:10044000C01A524103098B4201D30B01C01A524119
:10045000C3088B4201D3CB00C01A524183088B42A0
:1004600001D38B00C01A5241D9D243088B4201D329
:100470004B00C01A5241411A00D201466346524114
:100480005B10104601D34042002B00D54942704713
:1004900063465B1000D3404201B50020C046C04611
:1004A00002BD704770477047754600F025F8AE46AC
:1004B000050069465346C008C000854618B020B5FF
:1004C000FFF770FE60BC00274908B6460026C0C58D
:1004D000C0C5C0C5C0C5C0C5C0C5C0C5C0C5403DFC
:1004E00049008D46704710B50446C046C0462046B8
:1004F000FFF72BFE10BD000000487047D801002018
:1005000001491820ABBEFEE726000200704700013B
:100510000843704738B504460021684601706946B3
:10052000062000F029FF6846007801F049F97D2196
:1005300009014018E0806946052000F01DFF68466B
:10054000007801F03DF920716946042000F014FFA5
:100550006846007801F034F9E07038BD38B50446DB
:100560000021684601706946022000F005FF6846D8
:10057000007801F025F9A0706946012000F0FCFE2A
:100580006846007801F01CF960706946002000F0B0
:10059000F3FE6846007801F013F9207038BD10B5FD
:1005A000102000F059F810BD30B5014620314B78CD
:1005B0000022022B04D0042383630A70012030BD83
:1005C00003681C680E25AC431C6003681C68640843
:1005D00064001C600123056C1C46C06BAC40446089
:1005E0004B700A70002030BD70B5002401462031E8
:1005F0004A78022A03D004218163012416E00268AC
:1006000013680E25AB431360026813685B085B0038
:1006100013600122056C1346AB40C56B6B604A70DA
:1006200000220A70416B002900D08847204670BD27
:1006300070B5044600F0FAF80546601C02D0044884
:100640000078241800F0F2F8401BA042FAD370BDE5
:10065000540000207047000010B504494A69024266
:1006600002D04861FFF7F6FF10BD00000004014012
:10067000F8B5002303240125BAE02E469E40B44677
:1006800032407CD00E79B607B60F012E01D0022E73
:1006900017D186682746B6465E00B7400096764674
:1006A000BE43B646CF68009EB74076463743876064
:1006B00046686746BE430F79FF06FF0F9F403743EA
:1006C00047600E79F643B6070ED0C6682746B44693
:1006D0005E00B646B7406646BE43B4468F6876466F
:1006E000B74066463743C7600E79B607B60F022E8D
:1006F00014D1DE08B60036180096366A5F07B44695
:10070000FE0E0F27B646B7406646BE43B4460F6995
:100710007646B74066463743009E376206682746EE
:10072000B4465E00B646B7406646BE430F79B4464F
:10073000BF07BF0F7646B7406646374307604E682F
:10074000B603B60F53D02D4FBE692E43BE61BE69AE
:100750009F08F607F60F2A4EBF00BE190096B6682E
:100760000F27B4469E07360FB646B7406646BE43CF
:100770000927FF06B446B84202D1002710E036E050
:10078000204FB84201D101270AE01F4FB84201D1E2
:10079000022705E01D4FB84201D1032700E00527DD
:1007A0007646B74066463743009EB760184E3668B7
:1007B0004F689643FF0300D51643154F3E607E6891
:1007C0004F689643BF0300D51643114F7E60BE6845
:1007D0004F689643FF0200D516430D4FBE60FE687A
:1007E0004F689643BF0200D51643094AD6605B1C8A
:1007F0000A681646DE4000D03FE7F8BD0010024010
:10080000000001400004004800080048000C0048B7
:10081000000401400069084000D001207047002A10
:1008200001D0816170478162704700000148806893
:10083000704700005400002002488168027889183F
:10084000816070475400002010B5064801681022EE
:1008500011430160032000F007F800F027F80020A2
:1008600010BD00000020024070B504460D4D7D20F3
:100870002978C000FFF768FD01460B480068FFF7C4
:1008800063FD00F033FB002809D1042C07D20022BD
:100890002146401E00F02AF800206C6070BD012047
:1008A00070BD0000540000206000002008B508481A
:1008B0008169012211438161816911400091C269FE
:1008C00001040A43C261C0690840009008BD0000ED
:1008D00000100240002805DBC106C90E0120884037
:1008E000014908607047000000E100E010B500F029
:1008F00045FF10BDF8B505460068354CC00352D51C
:10090000E0690026C00007D4E16920040143E161E9
:10091000E1690140012600912E480168C90510D403
:100920000168821511430160FFF780FF074604E06C
:10093000FFF77CFFC01B642824D826480068C00548
:10094000F6D5206A03273F02384020D06968394035
:1009500081421CD0206A226AB843012109040A435B
:100960002262226A8A4322622062C0070FD0FFF708
:100970005DFF009008E0FFF759FF0099411A164803
:10098000814201D90320F8BD206A8007F3D5206A8F
:100990006968B84308432062002E04D0E169012051
:1009A00000078143E1612878C00705D0206BA96862
:1009B00080088000084320632878800605D5206BD6
:1009C00010218843E968084320630020F8BD000037
:1009D000001002400070004088130000F8B50F4678
:1009E000060059D03A4D2868C007C00FB84209D256
:1009F000286840084000384328602868C007C00FB6
:100A0000B84249D13068334C81070CD5400704D532
:100A1000606807210902084360606068F02188432C
:100A2000B168084360603078C00726D0706801283C
:100A30000ED0216802280ED0890700292CDA6168BF
:100A40008908890001436160FFF7F0FE00900DE026
:100A500021688903F1E78901EFE7FFF7E7FE0099D5
:100A6000411A1D48814201D90320F8BD60680C215C
:100A70000840716889008842EFD12868C007C00F1C
:100A8000B8420BD9286840084000384328602868DD
:100A9000C007C00FB84201D00120F8BD3078400730
:100AA00006D56068072109028843F1680843606041
:100AB00000F018F86168094A0906090F515CC8403E
:100AC000074908600320FFF7CFFE0020F8BD0000B3
:100AD0000020024000100240881300007C1B000828
:100AE0006000002010B514A30FCB88B06C460FC473
:100AF00015A30FCB0FC4184A51680C200B460340B6
:100B00001648042B16D0082B14D18B021B0F6C46F1
:100B1000E45CD26A04AB1207120F9A5CC90305D5D4
:100B200000231946FFF750FB214601E020460C49FF
:100B300000F0FEFD08B010BD020304050607080919
:100B40000A0B0C0D0E0F1010010203040506070816
:100B5000090A0B0C0D0E0F100010024000127A0053
:100B600000093D00FEB5040070D02078DC4DC007C0
:100B70004AD068680007800F012807D0686800071E
:100B8000800F022809D16868C00306D52868800351
:100B90003AD560680028E7D036E06168012914D0B2
:100BA00001208004002901D0052914D02A680121E0
:100BB00009048A432A602968814329606068002803
:100BC00016D0FFF733FE06460EE02868012109041F
:100BD00008432860F2E7296801432960F5E7FFF739
:100BE00025FE801B64286ED828688003F7D50BE0AB
:100BF000FFF71CFE064604E0FFF718FE801B642882
:100C0000F1D828688003F7D42078012680070028CF
:100C10003CDA68680007800F07D068680007800F1B
:100C2000022809D16868C00306D42868800716D551
:100C3000E06801280AD112E0E0680028286816D090
:100C400030432860FFF7F2FD074605E043E1FFF778
:100C5000EDFDC01B0228C6D828688007F7D5286894
:100C6000F82188432169C900084328600EE0400844
:100C700040002860FFF7DAFD074604E0FFF7D6FDE5
:100C8000C01B0228AFD828688007F7D42078000757
:100C900022D5E0690028686A0ED030436862FFF709
:100CA000C5FD074604E0FFF7C1FDC01B02289AD826
:100CB000686A8007F7D50FE0400840006862FFF7D8
:100CC000B5FD074605E09DE0FFF7B0FDC01B02281B
:100CD00089D8686A8007F7D420780427400700285D
:100CE00060DA00200190E869C00008D4E969B8061C
:100CF0000143E961E96901400120009101907948CF
:100D00000168C90511D40168821511430160FFF71C
:100D10008DFD009005E0FFF789FD0099401A6428D9
:100D200070D870480068C005F5D5A06801280AD0C1
:100D3000002801D0052810D0286A40084000286209
:100D4000286AB84301E0286A30432862A068002876
:100D500012D0FFF76BFD00900AE0286A3843286242
:100D6000F1E7FFF763FD0099411A5F48814249D8D6
:100D7000286A8007F5D50DE0FFF758FD009006E0E2
:100D8000FFF754FD0099411A574881423AD8286A22
:100D90008007F5D40198002804D0E96901200007F4
:100DA0008143E9612078C00635D5606901280CD0FF
:100DB000401D686B23D038436863686B400840006F
:100DC0006863FFF733FD064622E0686B38436863CB
:100DD000686B30436863FFF729FD064604E0FFF7C0
:100DE00025FD801B02285BD8686B8007F7D5686BF0
:100DF000F8218843A169C900084368630BE0B84340
:100E00006863F4E74CE0FFF711FD801B022847D828
:100E1000686B8007F7D4206A00285ED069680907EC
:100E2000890F022942D0012636060228286805D0FB
:100E3000B0432860FFF7FAFC044633E0B043286073
:100E4000FFF7F4FC074604E0FFF7F0FCC01B0228A4
:100E500026D828688001F7D4E86AE16A0009000111
:100E60000843E862616AA06A084369683D22120487
:100E7000914308436860286830432860FFF7D6FC38
:100E8000044604E0FFF7D2FC001B022808D82868BB
:100E90008001F7D521E0FFF7C9FC001B022801D92A
:100EA0000320FEBD28688001F5D416E00128F8D0A3
:100EB0006868E96A01221204636A02409A420AD110
:100EC0000907E26A090F914205D10F218904084000
:100ED000A16A884201D00120FEBD0020FEBD0000B5
:100EE000001002400070004088130000094910B54E
:100EF000401E884201D9012010BD074C60610321CA
:100F0000081F00F03BFC0020A061072020610020AA
:100F100010BD0000FFFFFF0000E000E070477047D9
:100F2000F8B502680446D069116896689C4B05467E
:100F30001D402023002D75D0F7079A4DFF0FBC46AA
:100F40000D402F436DD02546C7078035002F06D0B2
:100F5000CF0504D5012717622A683A432A60820721
:100F600008D5F20706D0276802223A622A680427C9
:100F70003A432A60420708D5F20706D026680422C1
:100F800032622A68022632432A6002070AD50A46DC
:100F90001A406646324305D02668082232622E681F
:100FA00016432E60020508D54A0106D5012226689F
:100FB000D20232622A681A432A602A68002A39D08B
:100FC000800606D5880604D5616E002901D020462A
:100FD0008847286821688968490602D42821084280
:100FE0002DD0204600F03AFB21688868400622D5C3
:100FF000EFF31080012282F310888B684022934324
:101000008B6080F31088206F002814D066494163FC
:10101000206FFFF7E9FA00280CD0206F416B08E041
:1010200000E012E0850610D58D060ED5616E9DE0BC
:1010300020468847F8BD2046FFF771FFF8BD2046DF
:10104000FFF76DFF00202860F8BD256E012D7DD1D2
:10105000C5067BD5CD0679D5102616622268906824
:10106000254640064035002845DA216F086840686B
:101070000004000CE8D02F8B8742E5D9688388698B
:10108000202833D0EFF31080012181F310881168FC
:101090003701B943116080F31088EFF3108001210C
:1010A00081F3108821688A68520852008A6080F3B0
:1010B0001088EFF31080012181F3108821688A687D
:1010C0004027BA438A6080F31088E36700202066D7
:1010D000EFF31080012181F3108821680A68B24380
:1010E0000A6080F31088206FFFF75EFA288B698B07
:1010F000401A81B231E0288B698B401A81B2688B2B
:101100000028A1D000299FD0EFF31080012585F39E
:1011100010881568FF272137BD43156080F31088BC
:10112000EFF31080012282F31088226895686D0821
:101130006D00956080F31088E3670020206660668C
:10114000EFF31080012282F3108800E009E02268AA
:101150001368B343136080F310882046FFF7DEFE68
:10116000F8BD050606D50D0604D5A16E002900D0F0
:101170005EE7F8BD4006FCD54806FAD52046EFF3F9
:101180001081012484F3108814684025AC43146056
:1011900081F3108883670021816600F007F8F8BDAD
:1011A0000F08000020010004491600087047FEE700
:1011B00000B585B014216846FFF7C4F80320C002CB
:1011C00000900120019002900320039009206946BD
:1011D000C006FFF74DFA05B000BD70B50824002524
:1011E00000F0BFF913E06806050E002000F0A0F93A
:1011F000022000F0EDFA022000F0EAFA012000F0EF
:1012000097F9022000F0E4FA00F0A0F90543204627
:10121000641EE4B20028E6D100F08AF9022000F052
:10122000D7FA00F0C2F9284670BD70B5044608250B
:101230001AE0002000F07CF9022000F0C9FAE00971
:10124000C00100F0A4F9022000F0C2FA6006040E0A
:10125000022000F0BDFA012000F06AF9022000F03F
:10126000B7FA002000F064F928466D1EEDB20028A0
:10127000DFD100F05DF9022000F0AAFA70BD10B5D0
:10128000012000F084F9022000F0A2FA022000F010
:101290009FFA012000F04CF9022000F099FA00209A
:1012A00000F046F9022000F093FA10BD10B500F0EE
:1012B0007CF9012000F06BF9022000F089FA01208E
:1012C00000F036F9022000F083FA002000F05FF908
:1012D000022000F07DFA002000F02AF9022000F040
:1012E00077FA10BD10B5002000F022F9022000F0BE
:1012F0006FFA002000F04BF9022000F069FA01209B
:1013000000F016F9022000F063FA012000F03FF926
:10131000022000F05DFA10BD10B5FF242D3401202D
:1013200000F035F900F01DF9012000F030F902203D
:1013300000F04EFA012000F0FBF8022000F048FA1D
:1013400006E0641EA4B2022000F042FA002C0DD088
:1013500000F0FCF80028F4D100F027F9002000F09C
:10136000E7F8022000F034FA002010BD00F01DF96B
:10137000FFF7B8FF012010BD70B50C460546FFF71A
:1013800095FFD020FFF751FFFFF7C6FF002801D0DF
:10139000012070BD2846FFF748FFFFF7BDFF00287A
:1013A00001D0022070BDFFF781FFD120FFF73DFF84
:1013B000FFF7B2FF002801D0032070BDFFF70DFF3B
:1013C0000546FFF75CFF2570FFF78CFF002070BD1E
:1013D00010B50A4C10212046FFF71CFA002808D14E
:1013E0000A20FFF725F910212046FFF713FA0028FD
:1013F00001D0002010BD012010BD000000040048F5
:10140000F0B587B014216846FEF79CFF2D4842696D
:10141000012189050A43426142690A4005924269F5
:1014200049110A43426142690A40059242694900F2
:101430000A434261406909270840FF0605900022DF
:10144000D8213846FFF7EBF9002208211E48FFF7A4
:10145000E6F91E4803250024009069460195029490
:101460003846FFF705F9D820012600900294694616
:10147000019603943846FFF7FBF8E3200090694695
:10148000019502941048FFF7F3F808200090694690
:101490000196039502940C48FFF7EAF8102000909B
:1014A000212000040190694602960748FFF7E0F802
:1014B000002211460720FFF719FA0720FFF70AFA62
:1014C00007B0F0BD0010024000040048279900005A
:1014D000FEE700B5030000F043F90A06080A0C0E07
:1014E00010121416181A0C2000BD042000BD002094
:1014F00000BD082000BD092000BD012000BD032063
:1015000000BD0B2000BD0A2000BD022000BDFF2051
:1015100000BD704710B505488069FEF7D7FEFEF79D
:101520001BFE0921FEF71AFF88B210BD00E000E0A3
:1015300009210122C906D202002803D0886910437C
:1015400088617047886A10438862704710B501212E
:1015500009200903C006FFF75DF9012800D000202B
:1015600010BD00B585B014216846FEF7EBFE0120E2
:1015700000030090002001900120029003200390BE
:1015800009206946C006FFF773F805B000BD0921C0
:101590000122C9061203002803D08869104388611C
:1015A0007047886A10438862704700B585B014217F
:1015B0006846FEF7C7FE012000030090012001905D
:1015C000002002900320039009206946C006FFF71F
:1015D0004FF805B000BD704710B5FFF72DF910BDED
:1015E00030B595B030216846FEF7ACFE00240D946E
:1015F00001250C940E940F9410941294119400955C
:101600001394684601950894FFF7ACFA002801D0BE
:1016100072B6FEE707200C9080200E900D950021F9
:101620000F940CA8FFF7DAF9002801D072B6FEE794
:1016300010A810951294FFF75DF9002801D072B63A
:10164000FEE715B030BD704710B5406A0022014674
:1016500040314A834A82FFF762FC10BD10B5EFF3B8
:101660001081012282F3108802681368FF2421345C
:10167000A343136081F31088EFF31081012282F3FA
:101680001088026893685B085B00936081F31088A0
:10169000016E01290BD1EFF31081012282F3108832
:1016A000026813681024A343136081F3108820217B
:1016B000C16700210166416610BD000010B50248F7
:1016C000FFF72EFC10BD000070000020F8B50024CC
:1016D00009270D460646FF06300601D5012200E027
:1016E000002280213846FFF79AF8280601D501220A
:1016F00000E0002208213846FFF791F8012240213E
:101700003846FFF78CF876006D00002240213846FD
:10171000FFF785F8641C082CDEDB01221021384617
:10172000FFF77DF8002210213846FFF778F8F8BD62
:10173000F8B5040C8BB2264682B25E430D0C1046FF
:10174000370C5843360480190021794116466E4300
:10175000370C36048019794126466E438919F8BD45
:1017600030B47446641E2578641CAB4200D21D461A
:10177000635D5B00E31830BC184700008307FF225D
:10178000DB0E9A408907090E9940002808DB830880
:1017900009489B001B18186890430843186070475D
:1017A0000007000F0838830804489B001B18D869FD
:1017B00090430843D861704700E400E000ED00E08A
:1017C000010700090A22090F50434018C0B27047B0
:1017D000002100E0491C8142FCD37047F8B51D4E42
:1017E0001D4C1E4F00252068401C2060B04229DDA2
:1017F000FFF790FEE062FFF78DFE2063FFF78AFEA1
:101800006063FFF787FEA063208E80B2FFF761FE62
:101810000146A08D80B2FFF75CFEFEF778FEE06324
:10182000208F80B2FFF755FE0146A08E80B2FFF7F1
:1018300050FEFEF76CFE01462064E06BFFF746FFAA
:10184000002020606D1CBD42CDDBA16C606CFFF7F9
:101850003DFFF8BD4C1D00000000002020A1070046
:1018600086B0FEF7F1FFFFF7BBFEFFF7C9FDFFF7FC
:101870009FFC5148FEF74EFE4F48FEF76FFE0025D5
:101880004D4F4E4C01264C48FEF744FE4A48FEF7A9
:1018900065FEB8780A21FEF757FDA16160610091ED
:1018A00078780A21FEF750FD2161E060009988B246
:1018B000FFF70FFE0146A08A80B2FFF70AFEFEF78F
:1018C00026FE6064208A80B2FFF703FE0146A089ED
:1018D00080B2FFF7FEFDFEF71AFEA0647D21F888B6
:1018E000C900FEF731FD0191E06108466421FEF771
:1018F0002BFD2062009064210198FEF725FD08462B
:101900000A21FEF721FD606264210198FEF71CFDAB
:1019100008460A21FEF718FDA162009880B2FFF781
:10192000D8FD0146A08B80B2FFF7D3FDFEF7EFFD97
:10193000A060208D80B2FFF7CCFD0146A08C80B264
:10194000FFF7C7FDFEF7E3FD606038780A21FEF778
:10195000FBFC2165E064FFF73BFD012803D1012674
:101960006D1C022D15D0002D15D0012D8BD1012E0F
:1019700019D0206D80B2FFF7ACFD0146E06C80B25B
:10198000FFF7A7FDFEF7C3FD0146A06CFFF79EFE23
:1019900079E7002504E0012E02D0A16C606CF5E728
:1019A000FFF71CFF05E000F00BF87D200001FEF7BB
:1019B0003FFE002667E700006400002000000020D2
:1019C000F8B50026694D6A4C37462068401C2060F7
:1019D000A84228DDFFF79EFDE062FFF79BFD206334
:1019E000FFF798FD6063FFF795FDA063208E80B23E
:1019F000FFF76FFD0146A08D80B2FFF76AFDFEF78D
:101A000086FDE063208F80B2FFF763FD0146A08E64
:101A100080B2FFF75EFDFEF77AFD01462064E06BC1
:101A2000FFF754FE27605348761C8642CDDB002624
:101A30002068401C2060A84228DDFFF76BFDE062B3
:101A4000FFF768FD2063FFF765FD6063FFF762FD48
:101A5000A063208E80B2FFF73CFD0146A08B80B2D0
:101A6000FFF737FDFEF753FDE063208F80B2FFF7ED
:101A700030FD0146A08E80B2FFF72BFDFEF747FD3B
:101A800001462064E06BFFF721FE27603A48761C90
:101A90008642CDDB00262068401C2060A84228DD5D
:101AA000FFF738FDE062FFF735FD2063FFF732FDF9
:101AB0006063FFF72FFDA063208C80B2FFF709FD64
:101AC0000146A08B80B2FFF704FDFEF720FDE06326
:101AD000208F80B2FFF7FDFC0146A08E80B2FFF799
:101AE000F8FCFEF714FD01462064E06BFFF7EEFD05
:101AF00027602148761C8642CDDB002605462068FB
:101B00001A49401C2060884228DDFFF703FDE0628F
:101B1000FFF700FD2063FFF7FDFC6063FFF7FAFCB1
:101B2000A063208C80B2FFF7D4FC0146A08B80B26A
:101B3000FFF7CFFCFEF7EBFCE063208F80B2FFF7EE
:101B4000C8FC0146A08C80B2FFF7C3FCFEF7DFFCA7
:101B500001462064E06BFFF7B9FD2760761CAE42BA
:101B6000CDDB6168A068FFF7B1FDF8BD4C1D00003A
:101B700000000020E093040090D00300000000006B
:101B8000000000000102030406070809AC1B00085E
:101B90000000002064000000F4000008101C000891
:101BA00064000020D40700001001000800000000BD
:101BB0000000000000000000000000000000000025
:101BC0000000000000000000000000000000000015
:101BD0000000000000000000000000000000000005
:101BE00000000000000000000000000000000000F5
:101BF00000000000000000000000000000000000E5
:101C000001000000040000000000000000127A0043
:04000005080000B13E
:00000001FF
